:10000000EEC0000081C20000E8C2000008C100008C
:1000100006C1000004C1000002C1000000C10000D0
:10002000FEC00000FCC00000FAC00000F8C00000E4
:10003000F6C00000F4C00000F2C00000F0C00000F4
:10004000EEC000004DC20000EAC00000E8C00000A1
:10005000E6C0000036C20000E2C00000E0C00000C0
:10006000DEC00000DCC00000DAC00000D8C0000024
:10007000D6C00000D4C00000D2C00000D0C0000034
:1000800015C30000CCC00000CAC0000045C300007A
:10009000C6C00000C4C00000C2C00000C0C0000054
:1000A000BEC00000BCC000001CC30000B8C00000FF
:1000B000B6C000005CC30000B2C00000B0C00000C9
:1000C000AEC00000ACC00000AAC00000A8C0000084
:1000D000A6C00000A4C00000B9C10000A0C000007C
:1000E0009EC0000000407A10F35A00A0724E18091A
:1000F0000010A5D4E80000E87648170000E40B548F
:10010000020000CA9A3B000000E1F505000080965D
:100110009800000040420F000000A086010000008F
:10012000102700000000E803000000006400000049
:1001300000000A00000000000100000000002C7612
:10014000D888DC674F0823DFC1DFAE59E1B1B7962D
:10015000E5E3E453C63AE651997696E8E6C284268A
:10016000EB898C9B62ED407C6FFCEFBC9C9F40F266
:10017000BAA56FA5F490055A2AF75C936B6CF967E2
:100180006DC11BFCE0E40D47FEF520E6B500D0EDA7
:10019000902E0300943577050080841E080000200F
:1001A0004E0A000000C80C333333330F986E1283AD
:1001B0001141EF8D2114893BE65516CFFEE6DB1881
:1001C000D1844B381BF77C1D901DA4BBE424203246
:1001D00084725E228100C9F124ECA1E53D2711243F
:1001E0001FBECFEFD1E2DEBFCDBF00E00CBF12E0FB
:1001F000A0E0B2E0E8EBF7E200E00BBF02C007903E
:100200000D92AC36B107D9F724E0ACE6B2E001C0FC
:100210001D92A73EB207E1F799D60C94DA13F0CEFF
:10022000CF92DF92EF92FF926B017C0120E030E0F1
:10023000A9010E941A0F882354F020E030E040E723
:1002400052E4C701B6010E946410181634F480917C
:10025000450484608093450405C0809145048B7FEC
:1002600080934504FF90EF90DF90CF900895CF9258
:10027000DF92EF92FF926B017C0120E030E040E7DB
:1002800051EC0E941A0F882354F020E030E040E740
:1002900051E4C701B6010E946410181634F480912D
:1002A000450488608093450405C080914504877F9C
:1002B00080934504FF90EF90DF90CF900895CF9208
:1002C000DF92EF92FF926B017C0120E030E04AE781
:1002D00053EC0E941A0F882354F020E030E04AE7E4
:1002E00053E4C701B6010E946410181634F48091DB
:1002F000450481608093450405C0809145048E7F4C
:1003000080934504FF90EF90DF90CF900895CF92B7
:10031000DF92EF92FF926B017C0120E030E0A901B7
:100320000E941A0F882354F02AE43CE846E652E47F
:10033000C701B6010E946410181634F48091450478
:1003400082608093450405C0809145048D7F809331
:100350004504FF90EF90DF90CF900895CF92DF9209
:10036000EF92FF921F93CF93DF9310916404C12FFC
:10037000D0E0BE016E5C7F4F072E000C880B990BFE
:100380000E94B40F6093AD047093AE048093AF04E9
:100390009093B004BE016B5F7F4F072E000C880B5B
:1003A000990B0E94B40F6093C3047093C4048093AC
:1003B000C5049093C604BE01665F7F4F072E000CF4
:1003C000880B990B0E94B40F6B017C01609317049A
:1003D000709318048093190490931A046093240472
:1003E000709325048093260490932704612F70E076
:1003F00080E090E00E94B20F6093B1047093B20469
:100400008093B3049093B404C092B504D092B60420
:10041000E092B704F092B80460937F047093800474
:10042000809381049093820480914504813019F473
:100430001092450403C081E080934504DF91CF9181
:100440001F91FF90EF90DF90CF9008951F920F9231
:100450000FB60F9211240BB60F928F939F93EF93C9
:10046000FF938091360190913F0391111FC08A3014
:1004700091F08D3081F090914003983C60F4E091D0
:100480004003F0E0EF5BFC4F8083809140038F5F7F
:10049000809340030BC0E0914003F0E0EF5BFC4F22
:1004A00010821092400381E080933F03FF91EF910F
:1004B0009F918F910F900BBE0F900FBE0F901F90CA
:1004C00018951F920F920FB60F9211248F9381E00F
:1004D000809360048F910F900FBE0F901F9018951E
:1004E0001F920F920FB60F9211248F939F9381E06A
:1004F00090E090936304809362049F918F910F909A
:100500000FBE0F901F9018951F920F920FB60F926B
:1005100011240BB60F922F933F934F935F936F93DA
:100520007F938F939F93AF93BF93CF93DF93EF937B
:10053000FF93E8988091410481110AC010929500C0
:1005400010929400E1E9F0E080818560808328C00A
:10055000E1E9F0E080818A7F8083C4E9D0E04881CE
:10056000598120913F0430E0AFEFBFEF0E9422118C
:10057000DC01CB01840F951FA11DB11D80933A04AE
:1005800090933B04A0933C04B0933D0419821882DD
:1005900080818560808310923F0481E080932904EC
:1005A00081E080934104E1E7F0E080818260808314
:1005B000FF91EF91DF91CF91BF91AF919F918F917B
:1005C0007F916F915F914F913F912F910F900BBE53
:1005D0000F900FBE0F901F9018951F920F920FB69D
:1005E0000F9211240BB60F922F933F934F935F936B
:1005F0006F937F938F939F93AF93BF93CF93DF932B
:10060000EF93FF93E9988091400481110AC0109202
:10061000A5001092A400E1EAF0E08081856080836B
:1006200028C0E1EAF0E080818A7F8083C4EAD0E0DC
:100630004881598120913E0430E0AFEFBFEF0E9426
:100640002211DC01CB01840F951FA11DB11D8093E8
:10065000360490933704A0933804B0933904198278
:10066000188280818560808310923E0481E08093AF
:10067000280481E080934004E2E7F0E0808182601A
:100680008083FF91EF91DF91CF91BF91AF919F91C7
:100690008F917F916F915F914F913F912F910F902B
:1006A0000BBE0F900FBE0F901F9018951F920F92C8
:1006B0000FB60F9211240BB60F928F93EF93FF9307
:1006C000E1E7F0E080818D7F8083E89AE09AFF91F6
:1006D000EF918F910F900BBE0F900FBE0F901F9058
:1006E00018951F920F920FB60F9211240BB60F920E
:1006F0008F93EF93FF93E2E7F0E080818D7F80831B
:10070000E99AE19AFF91EF918F910F900BBE0F90B4
:100710000FBE0F901F9018951F920F920FB60F9259
:1007200011240BB60F928F93EF93FF9380913F04A8
:100730008F5F80933F04E1E7F0E0808182608083F7
:1007400080913F04823048F010923F04109241049F
:10075000E1E9F0E080818A7F8083FF91EF918F91C2
:100760000F900BBE0F900FBE0F901F9018951F9209
:100770000F920FB60F9211240BB60F928F93EF9337
:10078000FF9380913E048F5F80933E04E2E7F0E0A8
:1007900080818260808380913E04823048F0109294
:1007A0003E0410924004E1EAF0E080818A7F808379
:1007B000FF91EF918F910F900BBE0F900FBE0F9096
:1007C0001F9018958F929F92AF92BF92CF92DF9217
:1007D000EF92FF920F931F93CF93DF934B01623001
:1007E000710508F443C0FB01EE7FE80FF91FA081FB
:1007F000B1819B01215031098C01EE24E394F12C4D
:1008000005C00E5F1F4F4FEFE41AF40AE70121976E
:100810005801F801C080D180CA16DB0690F3F901B7
:10082000EE0FFF1FE80FF91F40815181A417B50794
:1008300058F4BF0121503109FB013297BF014081BB
:100840005181A417B507B0F3C217D30740F4E501EF
:1008500059834883D182C08221503109D2CFBE0151
:10086000B1DFB4016C1B7D0BC501ACDFDF91CF9113
:100870001F910F91FF90EF90DF90CF90BF90AF90BE
:100880009F908F9008950F931F93CF93DF938C01C8
:10089000EB0198DFC0FD10C0CE018E7FE801C80FCC
:1008A000D91FFE0132972081318188819981820F81
:1008B000931F9695879506C02197CE7FC00FD11FB5
:1008C00088819981DF91CF911F910F9108958F9227
:1008D0009F92AF92BF92CF92DF92EF92FF92CF930F
:1008E000DF93EB01C880D980EA80FB80BC0180E007
:1008F00090E00E94B20F2AE037ED43E25DE30E94F0
:1009000068104B015C012DEC3CEC4CEC5FE3C70143
:10091000B6010E9468109B01AC01C501B4010E94A0
:10092000B60E4B015C012AE037ED43E25FE36C81D8
:100930007D818E819F810E9468109B01AC01C50161
:10094000B4010E94B50ECC82DD82EE82FF82688304
:1009500079838A839B83DF91CF91FF90EF90DF9023
:10096000CF90BF90AF909F908F900895AF92BF921D
:10097000CF92DF92EF92FF920F931F93CF93DF936B
:100980008C0180916B0490916C04892B31F40115DA
:10099000110509F45DC0780103C0EE24E394F12C45
:1009A000C0E0D0E00F2EFFECAF2EF4E0BF2EF02D14
:1009B000CC24C394D12C80916B0490916C0480174B
:1009C0009107E8F445E250E06FEF7FEF84E00E948A
:1009D0005E0D90935F0480935E0420916B043091D0
:1009E0006C04F901EE0FFF1FE153FB4F91838083ED
:1009F0002F5F3F4F30936C0420936B0412C045E28D
:100A000050E06FEF7FEF84E00E945E0D90935F04F3
:100A100080935E04F50191838083D0926C04C09230
:100A20006B042196CE15DF0530F20115110581F01A
:100A3000EFECF4E0ADE6B4E09801220F331F215350
:100A40003B4F819191918D939D93E217F307C9F7E5
:100A5000B8018DE694E017DF67EC74E038DFDF91D2
:100A6000CF911F910F91FF90EF90DF90CF90BF90AB
:100A7000AF900895AF92BF92CF92DF92EF92FF9224
:100A80000F931F93CF93DF938C0180916904909112
:100A90006A04892B31F40115110509F45BC0780152
:100AA00003C0EE24E394F12CC0E0D0E00F2EF5ED6E
:100AB000AF2EF4E0BF2EF02DCC24C394D12C809126
:100AC000690490916A0480179107E0F445E250E0D0
:100AD0006FEF7FEF86E0F2D790935904809358042C
:100AE0002091690430916A04F901EE0FFF1FEB5267
:100AF000FB4F918380832F5F3F4F30936A04209395
:100B0000690411C045E250E06FEF7FEF86E0D6D771
:100B10009093590480935804F50191838083D09277
:100B20006A04C09269042196CE15DF0540F20115D2
:100B3000110581F0E5EDF4E0AFE8B4E09801220F93
:100B4000331F2B523B4F819191918D939D93E217CF
:100B5000F307C9F7B8018FE894E095DE65E974E022
:100B6000B6DEDF91CF911F910F91FF90EF90DF9054
:100B7000CF90BF90AF900895AF92BF92CF92DF9287
:100B8000EF92FF920F931F93CF93DF938C0180918D
:100B9000670490916804892B31F40115110509F45B
:100BA0005BC0780103C0EE24E394F12CC0E0D0E0F8
:100BB0000F2EF3EAAF2EF4E0BF2EF02DCC24C39419
:100BC000D12C809167049091680480179107E0F41C
:100BD00042E051E06FEF7FEF86E070D790935304CF
:100BE000809352042091670430916804F901EE0F5C
:100BF000FF1FED55FB4F918380832F5F3F4F309355
:100C000068042093670411C042E051E06FEF7FEF6A
:100C100086E054D79093530480935204F501918356
:100C20008083D0926804C09267042196CE15DF05B8
:100C300040F20115110581F0E3EAF4E0ADEBB4E018
:100C40009801220F331F2D553B4F819191918D9328
:100C50009D93E217F307C9F7B8018DEB94E013DE1B
:100C600067E874E034DEDF91CF911F910F91FF9020
:100C7000EF90DF90CF90BF90AF900895AF92BF926A
:100C8000CF92DF92EF92FF920F931F93CF93DF9358
:100C90008C018091650490916604892B31F40115D3
:100CA000110509F45BC0780103C0EE24E394F12C34
:100CB000C0E0D0E00F2EFDE9AF2EF4E0BF2EF02D06
:100CC000CC24C394D12C8091650490916604801744
:100CD0009107E0F445E250E06FEF7FEF85E0EED65C
:100CE00090934D0480934C042091650430916604E8
:100CF000F901EE0FFF1FE356FB4F918380832F5FB7
:100D00003F4F309366042093650411C045E250E0E4
:100D10006FEF7FEF85E0D2D690934D0480934C0423
:100D2000F50191838083D0926604C0926504219678
:100D3000CE15DF0540F20115110581F0EDE9F4E073
:100D4000A7E7B4E09801220F331F23563B4F819150
:100D500091918D939D93E217F307C9F7B80187E747
:100D600094E091DD6BED74E0B2DDDF91CF911F91E6
:100D70000F91FF90EF90DF90CF90BF90AF900895CC
:100D800020E63FEF4FE958E30E9468102DEC3CEC61
:100D900040E451E40E9468106093B5047093B60477
:100DA0008093B7049093B804089520E63FEF4FE98D
:100DB00058E30E9468106093B9047093BA0480935A
:100DC000BB049093BC0423E333E343ED5FE3CDD74F
:100DD0002DEB39EE4DEA51E40E94681060937F04D8
:100DE000709380048093810490938204089520E698
:100DF0003FEF4FE958E30E946810609373047093CB
:100E00007404809375049093760420E030E040E20F
:100E100050E4ABD720E030E04AE753E40E9468108A
:100E20006093AD047093AE048093AF049093B004CC
:100E30000895CF92DF92EF92FF9220E63FEF4FE9C5
:100E400058E30E9468106093E3047093E404809375
:100E5000E5049093E60420E030E040E250E485D7DA
:100E600020E030E04AE754E40E9468106B017C0106
:100E70006093830470938404809385049093860424
:100E8000A7019601C701B60171D723EF3FE14AE9F7
:100E90005FE3D4D70E94CF106093C3047093C4045F
:100EA0008093C5049093C604FF90EF90DF90CF909D
:100EB0000895BC0180E090E00E94B20F25E236E088
:100EC00041E25BE30E9468102DE534E741EB50E41A
:100ED0000E9468106093B1047093B2048093B304CD
:100EE0009093B4040895F894EFE6F0E08081826076
:100EF000808378940895F894EFE6F0E080818D7F08
:100F0000808378940895F894E1E8F0E080818A7F06
:100F1000808310928500109284008091AB049091A0
:100F2000AC049093890080938800808185608083E1
:100F300078940895EEE6F0E08081826080830895E1
:100F4000EEE6F0E080818D7F8083089591D6E1E028
:100F5000F1E08081806180838081806280830E9A4D
:100F6000089A808188608083509851987894109A6C
:100F7000169AE2E0F1E0808188608083EAD6EFD6BD
:100F80005ED562E071E086E06ED565E270E085E0F6
:100F90006AD565E270E084E066D565E270E086E0DF
:100FA00062D5BFD5E7ECF4E0108211821282138281
:100FB0001482158216821782E5E9F4E0108211820C
:100FC000128213821482158216821782E7E8F4E0F7
:100FD0001082118212821382148215821682178265
:100FE000EBEDF4E0108211821282138214821582DA
:100FF0001682178284B5826084BD85B5856085BD03
:1010000084E28093610487BDE1E8F0E080818D6037
:10101000808384E491E09093AC048093AB0490933C
:1010200089008093880020ED32E03093990020936E
:101030009800E1E7F0E08081816080833093A9002F
:101040002093A800E2E7F0E0808181608083E9E6F8
:10105000F0E0808182608083E89A8081886080836C
:10106000E99A6091010270E080E090E07BD72CE586
:101070003FE842E250E40E9468102AE037ED43E284
:101080005CE30E94681023EC35EF48E450E40E94D2
:10109000681060930A0470930B0480930C0490937F
:1010A0000D0404EA10E0C4E9D0E0BB24B3940F2E91
:1010B000FEE06F2EF02D0F2EFAE08F2EF02D0F2E6A
:1010C000FDE09F2EF02D6894772474F86894AA248C
:1010D000A3F880914304813009F00CC28091600430
:1010E000813009F06CC080910202909103023EDCD5
:1010F00060935A0470935B0480935C0490935D0446
:101100003FDE6093B5047093B6048093B704909368
:10111000B80486D88091020290910302ABDC609300
:1011200054047093550480935604909357043DDE05
:1011300060937F0470938004809381049093820471
:1011400096D8809102029091030216DD60934E04BE
:1011500070934F04809350049093510448DE609341
:10116000AD047093AE048093AF049093B004A7D8FD
:10117000809102029091030281DD60934804709394
:10118000490480934A0490934B0453DE6093C30454
:101190007093C4048093C5049093C604B8D8D6D481
:1011A000909347048093460484DE6093B104709367
:1011B000B2048093B3049093B404109260048091BD
:1011C0004104811109C01092240410922504109248
:1011D000260410922704C2C080912904813009F0AE
:1011E00067C060913A0470913B0480913C049091F7
:1011F0003D04BAD627E830EC41E159E369D76B01E9
:101200007C01609332047093330480933404909390
:1012100035046091000270E080E090E0A5D6A7015F
:10122000960156D79B01AC0160910A0470910B04A2
:1012300080910C0490910D0401D626E636E646E630
:1012400050E446D7609324047093250480932604C9
:101250009093270480911B0481110AC0B0921B0453
:101260001092240410922504109226041092270450
:10127000C0902404D0902504E0902604F090270428
:1012800020912004309121044091220450912304A4
:10129000C701B60119D7882344F0C0922004D09228
:1012A0002104E0922204F09223041092290456C0F3
:1012B0004881598120913F0430E0AFEFBFEFC2D7A2
:1012C000640F751F811D911D60933A0470933B0458
:1012D00080933C0490933D0447D627E830EC41E1ED
:1012E00059E3F6D66B017C016093320470933304AA
:1012F00080933404909335046091000270E080E0A4
:1013000090E032D6A7019601E3D69B01AC01609133
:101310000A0470910B0480910C0490910D048ED5F9
:1013200026E636E646E650E4D3D660931C04709376
:101330001D0480931E0490931F0420E030E040EAD7
:1013400050E478D5181654F010921B04109224041F
:1013500010922504109226041092270480914004D4
:10136000811109C0109217041092180410921904E8
:1013700010921A04BFC080912804813009F065C022
:10138000609136047091370480913804909139044B
:10139000EBD527E830EC41E159E39AD660932E046F
:1013A00070932F04809330049093310420E030E058
:1013B00040E752E443D560932A0470932B04809352
:1013C0002C0490932D0420E030E040E051E480D6DE
:1013D0009B01AC0160E070E080E89FE32FD5609353
:1013E0001704709318048093190490931A04809141
:1013F0000E0481110AC0B0920E04109217041092CC
:1014000018041092190410921A04C0901704D09076
:101410001804E0901904F0901A04209113043091FC
:1014200014044091150450911604C701B6014CD61E
:10143000882344F0C0921304D0921404E09215045F
:10144000F09216041092280455C0F8014081518191
:1014500020913E0430E0AFEFBFEFF4D6640F751F6C
:10146000811D911D60933604709337048093380476
:101470009093390479D527E830EC41E159E328D637
:1014800060932E0470932F04809330049093310462
:1014900020E030E040E752E4D1D460932A04709316
:1014A0002B0480932C0490932D0420E030E040E046
:1014B00051E40ED69B01AC0160E070E080E89FE350
:1014C000BDD460930F047093100480931104909323
:1014D000120420E030E040E251E4ACD4181654F09D
:1014E00010920E041092170410921804109219040E
:1014F00010921A048091620490916304019709F09C
:1015000021C180914204813009F066C00E94AE0181
:101510006091AD047091AE048091AF049091B004DD
:1015200044E084D36091C3047091C4048091C504E5
:101530009091C60444E07AD3609117047091180426
:101540008091190490911A0444E070D360912404AE
:1015500070912504809126049091270444E066D37D
:101560006091440470E080E090E0FCD440E05ED301
:101570006091450470E080E090E0F4D440E056D300
:101580006091B1047091B2048091B3049091B4045D
:1015900044E04CD36091B5047091B6048091B704D7
:1015A0009091B80444E042D360917F04709180042C
:1015B000809181049091820444E038D384E092E0E9
:1015C00000D380916404853018F010926404B6C092
:1015D0008F5F80936404B2C06091AD047091AE04DB
:1015E0008091AF049091B00444E020D36091C30493
:1015F0007091C4048091C5049091C60444E016D350
:1016000060911704709118048091190490911A0444
:1016100044E00CD360912404709125048091260449
:101620009091270444E002D36091440470E080E08C
:1016300090E098D440E0FAD26091450470E080E0F8
:1016400090E090D440E0F2D26091B1047091B20485
:101650008091B3049091B40444E0E8D26091B50461
:101660007091B6048091B7049091B80444E0DED242
:1016700060917F0470918004809181049091820434
:1016800044E0D4D284E092E09CD26091AD047091A9
:10169000AE048091AF049091B00444E0A5D2609173
:1016A000C3047091C4048091C5049091C60444E0C1
:1016B0009BD2609117047091180480911904909145
:1016C0001A0444E091D26091240470912504809121
:1016D00026049091270444E087D26091440470E08E
:1016E00080E090E03FD440E07FD26091450470E01C
:1016F00080E090E037D440E077D26091B1047091FF
:10170000B2048091B3049091B40444E06DD260912E
:10171000B5047091B6048091B7049091B80444E088
:1017200063D260917F0470918004809181049091D4
:10173000820444E059D284E092E030D210926304F3
:101740001092620480913F03813009F0C2CC67E0BF
:1017500072E081E493E0C1D5892B11F4C4DB6CC144
:101760006EE072E081E493E0B8D5892B11F4C3DB1D
:1017700063C148E050E066E172E081E493E0B6D5F1
:10178000892B09F05DC010923E03A0923D03109298
:101790003C038091490380933B038D3069F18A308B
:1017A00059F129E030E090E0E92FF0E0EE58FD4FEC
:1017B00080839F5F422FF901EF5BFC4F80818D306A
:1017C00039F490933E0320933D0390923B0314C061
:1017D0008A3039F490933E0320933D0380923B037B
:1017E0000BC02F5F3F4F293C3105F1F690933E032C
:1017F00040933D0380933B03E0913E03F0E0EE58BD
:10180000FD4F108282E792E04BD59093AA0480931B
:10181000A90490937E0480937D0460917D0470916F
:101820007E0480E090E09ED326E636E646EE50E465
:101830004FD46CD37093AC046093AB0464DBFCC0F6
:101840006FE172E081E493E048D5892B09F4F4C09C
:1018500069E272E081E493E040D5892BA1F46091C4
:10186000010270E080E090E07DD340E0BDD1609166
:10187000000270E080E090E075D340E0B5D184E0F4
:1018800092E08CD1D9C040E150E068E372E081E49D
:1018900093E02CD5892B09F061C010923E03709221
:1018A0003D0310923C038091510380933B038D30A4
:1018B00069F18A3059F121E130E090E0E92FF0E060
:1018C000E459FD4F80839F5F422FF901EF5BFC4F8E
:1018D00080818D3039F490933E0320933D039092A4
:1018E0003B0314C08A3039F490933E0320933D03A8
:1018F00080923B030BC02F5F3F4F293C3105F1F62F
:1019000090933E0340933D0380933B03E0913E035D
:10191000F0E0E459FD4F10828CE692E0C1D4809350
:101920000102682F70E080E090E01CD32CE53FE8D6
:1019300042E250E4CDD32AE037ED43E25CE3C8D382
:1019400023EC35EF48E450E4C3D360930A0470936A
:101950000B0480930C0490930D046EC04EE050E095
:1019600069E472E081E493E0C1D4892B09F045C0B9
:1019700010923E0360923D0310923C0380914F030E
:1019800080933B038D3069F18A3059F12FE030E0CC
:1019900090E0E92FF0E0E159FD4F80839F5F422FF7
:1019A000F901EF5BFC4F80818D3039F490933E0359
:1019B00020933D0390923B0314C08A3039F49093F6
:1019C0003E0320933D0380923B030BC02F5F3F4FAC
:1019D000293C3105F1F690933E0340933D038093FB
:1019E0003B03E0913E03F0E0E159FD4F10828FE6AA
:1019F00092E056D4809300021FC068E572E081E453
:101A000093E06BD4892B41F41092420493DAB092A4
:101A100043041092440410C063E672E081E493E052
:101A20005CD4892B49F4109243048ADAB0924204C0
:101A3000B09244041092640410923F034ACB84B1E4
:101A40008FEF84B9E1E0F1E08081806480838CB520
:101A500084658CBD8DB58EB508958EBD0DB407FE21
:101A6000FDCF8EB508950F931F93CF93DF93EB01B6
:101A7000988101E010E002C0000F111F8A95E2F783
:101A8000102F1095912398838FEFE7DF8881802BAB
:101A900088838CE08A95F1F70000888118231883E9
:101AA0008FEFDBDF8FEFD9DF8FEFD7DF8881082B58
:101AB0000883DF91CF911F910F910895EF92FF92CC
:101AC0000F931F93CF93DF937B01EA01988101E08D
:101AD00010E002C0000F111F8A95E2F7902B988347
:101AE0004CE04A95F1F700008881902F909589236A
:101AF00088838FEFB2DF182F8FEFAFDF9881092B2C
:101B00000883212F30E0322F2227A901482BCA0158
:101B10008E219F21DF91CF911F910F91FF90EF9028
:101B2000089580EC80937C00EAE7F0E087E0808312
:101B3000808180688083808180648083808186FD4D
:101B4000FDCF80917800909179000895EBE7F0E067
:101B5000808188608083EAE7F0E080818064808310
:101B6000808186FDFDCF809178002091790090E002
:101B7000922B0895E0ECF0E0908195FFFDCF8093EB
:101B8000C60080E090E00895E0E3F1E0908195FFE9
:101B9000FDCF8093360180E090E00895CF93DF93EE
:101BA000EC018881882329F02196E4DF8991811155
:101BB000FCCFE0ECF0E0808185FFFDCFDF91CF919D
:101BC0000895CF93DF93EC018881882329F0219633
:101BD000DBDF89918111FCCFE0E3F1E0808185FFBB
:101BE000FDCFDF91CF9108950F931F93CF93DF9394
:101BF000CDB7DEB728970FB6F894DEBF0FBECDBFC6
:101C0000242F8E010F5F1F4F46E02BD3C801C6DF84
:101C10008DE192E0C3DF28960FB6F894DEBF0FBEC9
:101C2000CDBFDF91CF911F910F9108950F931F9317
:101C3000CF93DF93CDB7DEB728970FB6F894DEBF0A
:101C40000FBECDBF242F8E010F5F1F4F46E009D37B
:101C5000C801B7DF8DE192E0B4DF28960FB6F894A3
:101C6000DEBF0FBECDBFDF91CF911F910F910895C1
:101C70001092C50083E08093C400E0ECF0E080E2C5
:101C80008083A1ECB0E08C9188698C93A2ECB0E0E9
:101C90008C918E608C938081882334F4A6ECB0E024
:101CA0008C9180818823E4F31092CD0083E08093AF
:101CB000CC00E8ECF0E080E28083A9ECB0E08C910D
:101CC00088698C93AAECB0E08C918E608C938081B3
:101CD000882334F4AEECB0E08C9180818823E4F367
:101CE0001092D50083E08093D400E0EDF0E080E234
:101CF0008083A1EDB0E08C9188698C93A2EDB0E077
:101D00008C918E608C938081882334F4A6EDB0E0B2
:101D10008C9180818823E4F31092350183E08093D5
:101D20003401E0E3F1E080E28083A1E3B1E08C9153
:101D300088698C93A2E3B1E08C918E608C93808152
:101D4000882334F4A6E3B1E08C9180818823E4F306
:101D50000895E2E0F1E08081806280830895E2E00E
:101D6000F1E080818061808308955058BB27AA27C5
:101D70000ED070C161D130F066D120F031F49F3FB8
:101D800011F41EF456C10EF4E095E7FB4CC1E92FA7
:101D900072D180F3BA17620773078407950718F0AA
:101DA00071F49EF58AC10EF4E0950B2EBA2FA02D8A
:101DB0000B01B90190010C01CA01A0011124FF27F8
:101DC000591B99F0593F50F4503E68F11A16F040F3
:101DD000A22F232F342F4427585FF3CF46953795F2
:101DE0002795A795F0405395C9F77EF41F16BA0BB7
:101DF000620B730B840BBAF09150A1F0FF0FBB1F65
:101E0000661F771F881FC2F70EC0BA0F621F731FAD
:101E1000841F48F4879577956795B795F7959E3F0A
:101E200008F0B3CF9395880F08F09927EE0F979598
:101E300087950895D4D008F481E008950CD00AC1A4
:101E400002D140F0F9D030F021F45F3F19F0EBC03F
:101E5000511134C1EEC00FD198F39923C9F3552322
:101E6000B1F3951B550BBB27AA276217730784078D
:101E700038F09F5F5F4F220F331F441FAA1FA9F343
:101E800033D00E2E3AF0E0E830D091505040E69535
:101E9000001CCAF729D0FE2F27D0660F771F881F96
:101EA000BB1F261737074807AB07B0E809F0BB0B85
:101EB000802DBF01FF2793585F4F2AF09E3F5105A9
:101EC00068F0B1C0FBC05F3FECF3983EDCF3869551
:101ED00077956795B795F7959F5FC9F7880F911D1F
:101EE0009695879597F90895E1E0660F771F881F0B
:101EF000BB1F621773078407BA0720F0621B730BBE
:101F0000840BBA0BEE1F88F7E0950895BCD088F0DB
:101F10009F5790F0B92F9927B751A0F0D1F0660FD5
:101F2000771F881F991F1AF0BA95C9F712C0B130F0
:101F300081F0C3D0B1E00895C0C0672F782F882703
:101F4000B85F39F0B93FCCF3869577956795B3952F
:101F5000D9F73EF490958095709561957F4F8F4F9E
:101F60009F4F0895E89409C097FB3EF490958095A3
:101F7000709561957F4F8F4F9F4F9923A9F0F92F4F
:101F800096E9BB279395F695879577956795B795CD
:101F9000F111F8CFFAF4BB0F11F460FF1BC06F5FB3
:101FA0007F4F8F4F9F4F16C0882311F096E911C0C5
:101FB000772321F09EE8872F762F05C0662371F0E6
:101FC00096E8862F70E060E02AF09A95660F771FFA
:101FD000881FDAF7880F9695879597F90895990FD6
:101FE0000008550FAA0BE0E8FEEF16161706E807E3
:101FF000F907C0F012161306E407F50798F0621B04
:10200000730B840B950B39F40A2661F0232B242BD8
:10201000252B21F408950A2609F4A140A6958FEFF7
:10202000811D811D089597F99F6780E870E060E049
:1020300008959FEF80EC089500240A941616170661
:1020400018060906089500240A94121613061406A9
:1020500005060895092E0394000C11F4882352F00C
:10206000BB0F40F4BF2B11F460FF04C06F5F7F4FC4
:102070008F4F9F4F089557FD9058440F551F59F0AB
:102080005F3F71F04795880F97FB991F61F09F3F65
:1020900079F087950895121613061406551FF2CF8E
:1020A0004695F1DF08C0161617061806991FF1CFDE
:1020B00086957105610508940895E894BB27662705
:1020C0007727CB0197F908958ADF08F48FEF0895F9
:1020D0000BD0C0CFB1DF28F0B6DF18F0952309F0A0
:1020E000A2CFA7CF1124EACFC6DFA0F3959FD1F3EB
:1020F000950F50E0551F629FF001729FBB27F00DB6
:10210000B11D639FAA27F00DB11DAA1F649F66270A
:10211000B00DA11D661F829F2227B00DA11D621F59
:10212000739FB00DA11D621F839FA00D611D221F13
:10213000749F3327A00D611D231F849F600D211DF7
:10214000822F762F6A2F11249F5750408AF0E1F09A
:1021500088234AF0EE0FFF1FBB1F661F771F881FE3
:1021600091505040A9F79E3F510570F05CCFA6CF2B
:102170005F3FECF3983EDCF3869577956795B795CE
:10218000F795E7959F5FC1F7FE2B880F911D9695F8
:10219000879597F9089511F40EF44BCF3EC073DF85
:1021A000D0F39923D9F3CEF39F57550B87FF43D034
:1021B0000024A0E640EA900180585695979528F4AF
:1021C000805C660F771F881F20F0261737074807A7
:1021D00030F4621B730B840B202931294A2BA695FE
:1021E00017940794202531254A2758F7660F771F43
:1021F000881F20F026173707480730F4620B730B4F
:10220000840B200D311D411DA09581F7B901842F4C
:102210009158880F9695879508959F3F31F091507A
:1022200020F4879577956795B795880F911D9695BA
:10223000879597F9089591505040660F771F881F32
:10224000D2F70895A29FB001B39FC001A39F700D64
:10225000811D1124911DB29F700D811D1124911DAE
:102260000895EF920F931F93CF93DF93E80147FDFB
:1022700002C034E001C034E1042E000C550B57FFBE
:1022800003C0519541955109E32E022F242FAE0131
:1022900043D0CE01DF91CF911F910F91EF90089520
:1022A000FC0188279927E89421912032E9F329300D
:1022B00010F02E30C8F32B3239F02D3231F46894FF
:1022C00003C022D0820F911D219120532A30C8F3E0
:1022D0001EF4909581959F4F0895FB01DC018D912F
:1022E000019080190110D9F3990B0895FB01DC01CD
:1022F0004150504030F08D910190801919F4002028
:10230000B9F7881B990B08957AE0979F902D879FC6
:10231000802D910D112408958F929F92AF92BF92BC
:10232000CF92DF92EF92FF920F931F93CF93DF93A1
:10233000CDB7DEB729970FB6F894DEBF0FBECDBF7D
:102340006A01122FB02E2BE3201720F0FF24F39404
:10235000F00E02C02CE3F22E0F2D27E0AE014F5FEE
:102360005F4F50D1BC014981842F8970813031F099
:10237000E1FC06C0E0FE06C090E205C09DE203C09D
:102380009BE201C090E05E2D507143FF3CC0911173
:1023900002C083E001C084E0811718F4212F281BBC
:1023A00001C020E051110BC0F601822F30E28823DA
:1023B00019F031938150FBCFC20ED11C20E099233C
:1023C00029F0D6019C93F60131966F01C601039660
:1023D000E2FE0AC03EE4D6013C9341E411964C93E0
:1023E000119712963C9306C03EE6F601308341E613
:1023F00041833283FC01322F40E2332309F442C08F
:1024000041933150FACF42FF44C0911102C083E0A2
:1024100001C084E0811718F4212F281B01C020E09F
:1024200051110BC0F601822F30E2882319F031934D
:102430008150FBCFC20ED11C20E0992329F0D60198
:102440009C93F60131966F01C6010396E2FE0BC024
:1024500039E4D6013C933EE411963C93119736E45F
:1024600012963C9307C039E6F60130833EE631838D
:1024700036E63283FC01322F40E2332319F04193D8
:102480003150FBCFFC01E20FF11D10828EEF9FEF68
:10249000A6C021E030E0911102C020E030E0161625
:1024A00017061CF4FB01319602C0E1E0F0E02E0FAC
:1024B0003F1FBB2021F0EB2DF0E0319602C0E0E0A1
:1024C000F0E02E0F3F1FE12FF0E02E173F071CF426
:1024D000121B212F01C020E08E2D887159F4F601C6
:1024E000822F30E2882319F031938150FBCFC20E46
:1024F000D11C20E0992329F0D6019C93F601319656
:102500006F0151110BC0F601822F90E3882319F05F
:1025100091938150FBCFC20ED11C20E00F2D060FEE
:102520009A81342F307144FF03C0913309F4015074
:10253000101624F4093018F008E001C001E0AB01E6
:1025400077FF02C040E050E0FB01E41BF50BA1E087
:10255000B0E0AC0FBD1FEA0FFB1F8EE2A82E4B01AF
:10256000801A91080B2D10E01195019511094F3F2C
:10257000BFEF5B0721F4D601AC9211966D01641791
:1025800075072CF08416950614F4818101C080E350
:10259000415051093196D60111967D0140175107DE
:1025A00024F0D6018C936701E2CF6417750739F4E4
:1025B000963320F4953319F4311101C081E3F6010B
:1025C0008083F701822F90E2882319F09193815044
:1025D000FBCFF701E20FF11D108280E090E0299619
:1025E0000FB6F894DEBF0FBECDBFDF91CF911F9124
:1025F0000F91FF90EF90DF90CF90BF90AF909F90A2
:102600008F900895283008F027E03327DA01990FDA
:10261000311D87FD916000966105710539F43260C6
:102620002E5F3D9330E32A95E1F708959F3F30F008
:1026300080387105610509F03C5F3C5F3D93913046
:1026400008F08068911DDF93CF931F930F93FF9243
:10265000EF92192F987F9695E92F96959695E90F09
:10266000FF27E25CFE4F99273327EE24FF24A701C2
:10267000E70105900894079428F4360FE71EF81E2A
:10268000491F511D660F771F881F991F0694A1F7D8
:102690000590079428F4E70EF81E491F561FC11D28
:1026A000770F881F991F661F0694A1F7059007945E
:1026B00028F4F80E491F561FC71FD11D880F991FF8
:1026C000661F771F0694A1F70590079420F4490F21
:1026D000561FC71FD81F990F661F771F881F0694A4
:1026E000A9F784911095177041F0D695C795579525
:1026F0004795F794E7941A95C1F7E4EEF0E06894F3
:102700001590159135916591959105907FE273959E
:10271000E118F10A430B560BC90BD009C0F7E10CC5
:10272000F11E431F561FC91FD01D7EF4703311F4D4
:102730008A95E6CFE894015030F0080F0AF400279C
:10274000021708F4202F2395022F7A3328F079E31B
:102750007D932A95E9F710C07D932A9589F6069412
:1027600097956795379517951794E118F10A430BDC
:10277000560BC90BD00998F023957E9173957A3347
:1027800008F070E37C932013B8F77E9170617D931D
:1027900030F0839571E37D9370E32A95E1F711247E
:1027A000EF90FF900F911F91CF91DF91992787FDB7
:0827B00090950895F894FFCF05
:1027B800011C03000D0A002424244F4E3B0024244E
:1027C800244F46463B00242424524154453B0024D0
:1027D800242463616C69623B0024242467657420A7
:1027E800636F6E6669673B002424247365742064F4
:1027F80069616D657465723B0024242473657420D7
:102808006D61676E65743B002424244D65737365A0
:0C2818006E3B00242424546573743B00C4
:00000001FF
